:020000040800F2
:1000000000500020490C0008990C0008990C0008C9
:10001000990C0008990C0008990C000800000000D9
:10002000000000000000000000000000990C000823
:10003000990C000800000000990C0008B9010008A4
:10004000990C0008990C0008990C0008990C0008FC
:10005000990C0008990C0008590500087D05000856
:10006000A1050008C5050008E9050008990C00086D
:10007000990C0008990C0008990C0008990C0008CC
:10008000990C0008990C0008990C0008990C0008BC
:10009000990C0008990C0008990C0008990C0008AC
:1000A000990C0008990C0008990C0008990C00089C
:1000B000990C0008990C0008990C0008990C00088C
:1000C000990C0008990C0008990C0008990C00087C
:1000D000990C0008ED0800080D0900082D0900081A
:1000E000990C0008990C000800000000990C000809
:1000F000990C0008990C0008990C0008990C00084C
:10010000990C0008990C0008990C0008990C00083B
:10011000990C0008990C0008990C0008990C00082B
:10012000990C0008990C0008990C0008990C00081B
:1001300010B5054C237833B9044B13B10448AFF321
:1001400000800123237010BD00000020000000008B
:10015000E40C000808B5034B1BB103490348AFF397
:10016000008008BD0000000004000020E40C00082E
:1001700080B485B000AF0346FB7197F907305B117F
:100180005BB2FB6097F907305A4203F01F0302F09D
:100190001F0258BF53425BB2BB6006490122BB68D5
:1001A0009A40FB6841F8232000BF1437BD4680BC4D
:1001B000704700BF00E100E080B500AF0D4B1B6849
:1001C00098470D4B1B68002B11D10C4B00225A6035
:1001D0000A4B00229A60094B1B68084A23F001036E
:1001E0001360064B1B68054A23F00203136000BF2F
:1001F00080BD00BF1C0000202000002010E000E0B7
:1002000080B483B000AF0346FB71FB790F2B09D894
:10021000074B1B68FA79012101FA02F21146044AE0
:100220000B43136000BF0C37BD4680BC704700BF56
:100230000004014080B483B000AF03460A46FB715E
:100240001346BB71FB790F2B4AD8BB79022B32D0F6
:10025000022B45DC002B02D0012B16D040E0234BB3
:100260009B68FA79012101FA02F211461F4A0B43F9
:1002700093601E4BDB68FA79012101FA02F2D24346
:1002800011461A4A0B40D3602AE0184B9B68FA7952
:10029000012101FA02F2D2431146144A0B40936045
:1002A000124BDB68FA79012101FA02F211460F4A7A
:1002B0000B43D36014E00D4B9B68FA79012101FADE
:1002C00002F21146094A0B439360084BDB68FA7946
:1002D000012101FA02F21146044A0B43D36000BF28
:1002E00000BF0C37BD4680BC704700BF0004014012
:1002F00080B483B000AF03460A46FB711346BB715E
:10030000FB790F2B00F20A81FB790F2B00F206819B
:1003100001A252F823F000BF59030008730300083C
:1003200091030008AF030008CD030008E7030008AD
:100330000504000823040008410400085B040008C9
:100340007904000897040008B5040008CF040008E9
:10035000E904000803050008734B9B68724A23F008
:100360000F039360704B9A68BB796F4913438B609E
:10037000D4E06D4B9B686C4A23F0F00393606A4BAA
:100380009B68BA7912011146674A0B439360C5E036
:10039000654B9B68644A23F470639360624B9B686F
:1003A000BA7912021146604A0B439360B6E05E4B85
:1003B0009B685D4A23F4704393605B4B9B68BA79FA
:1003C00012031146584A0B439360A7E0564BDB6873
:1003D000554A23F00F03D360534BDA68BB79524977
:1003E0001343CB609AE0504BDB684F4A23F0F00395
:1003F000D3604D4BDB68BA79120111464A4A0B4370
:10040000D3608BE0484BDB68474A23F47063D360CA
:10041000454BDB68BA7912021146434A0B43D3605D
:100420007CE0414BDB68404A23F47043D3603E4B91
:10043000DB68BA79120311463B4A0B43D3606DE087
:10044000394B1B69384A23F00F031361364B1A6985
:10045000BB79354913430B6160E0334B1B69324A6A
:1004600023F0F0031361304B1B69BA791201114676
:100470002D4A0B43136151E02B4B1B692A4A23F48D
:1004800070631361284B1B69BA7912021146264A20
:100490000B43136142E0244B1B69234A23F470434E
:1004A0001361214B1B69BA79120311461E4A0B4393
:1004B000136133E01C4B5B691B4A23F00F0353614C
:1004C000194B5A69BB79184913434B6126E0164B07
:1004D0005B69154A23F00F035361134B5A69BB79CB
:1004E000114913434B6119E00F4B5B690E4A23F02E
:1004F0000F0353610C4B5A69BB790B4913434B6192
:100500000CE0094B5B69084A23F00F035361064B6B
:100510005A69BB79044913434B6100BF00BF0C37D4
:10052000BD4680BC704700BF0000014080B483B06E
:1005300000AF03463960FB71FB790F2B04D8FB79C0
:1005400004493A6841F8232000BF0C37BD4680BCFF
:10055000704700BF2400002080B500AF054B5B69E9
:10056000044A43F001035361034B1B68984700BFE3
:1005700080BD00BF000401402400002080B500AF12
:10058000054B5B69044A43F002035361034B5B680C
:10059000984700BF80BD00BF000401402400002038
:1005A00080B500AF054B5B69044A43F00403536117
:1005B000034B9B68984700BF80BD00BF000401400B
:1005C0002400002080B500AF054B5B69044A43F06E
:1005D00008035361034BDB68984700BF80BD00BF31
:1005E000000401402400002080B500AF054B5B698A
:1005F000044A43F010035361034B1B69984700BF43
:1006000080BD00BF000401402400002080B400AF82
:10061000114B1B68104A43F48033136000BF0E4B2C
:100620001B6803F40033002BF9D00B4B9B680A4A7C
:1006300023F400239360084B5B68074A43F00103EF
:100640005360054B5B68044A23F00203536000BF0C
:10065000BD4680BC704700BF0010024080B483B02C
:1006600000AF03460A46FB711346BB71FB79022BB0
:100670001CD0022B25DC002B02D0012B0BD020E05C
:10068000124B5B69BA79012101FA02F211460F4A55
:100690000B43536115E00D4BDB69BA79012101FA77
:1006A00002F21146094A0B43D3610AE0074B9B69EA
:1006B000BA79012101FA02F21146044A0B4393610F
:1006C00000BF00BF0C37BD4680BC70470010024021
:1006D00080B483B000AF0346FB71FB79022B65D079
:1006E000022B00F39280002B02D0012B2FD08CE044
:1006F000484BDB68474A23F48053D360454BDB68A3
:10070000444A23F48063D360424B1B69414A23F47B
:10071000805313613F4B1B693E4A23F4005313611E
:100720003C4B40F249329A603A4BDB68394A43F419
:100730000053D360374BDB68364A43F00803D3607D
:10074000344BDB68334A43F00403D3605DE0324B43
:10075000DB68314A23F48053D3602F4BDB682E4A89
:1007600023F48063D3602C4B1B692B4A23F4805302
:100770001361294B1B69284A23F400531361264B4C
:1007800040F249329A60244BDB68234A43F4005319
:10079000D360214BDB68204A43F00803D3601E4B33
:1007A000DB681D4A43F00403D3602EE01B4BDB687B
:1007B0001A4A23F48053D360184BDB68174A23F49A
:1007C0008063D360154B1B69144A23F48053136173
:1007D000124B1B69114A23F4005313610F4B40F273
:1007E00049329A600D4BDB680C4A43F40053D360E6
:1007F0000A4BDB68094A43F00803D360074BDB6808
:10080000064A43F00403D36000BF00BF0C37BD4667
:1008100080BC704700380140004400400048004060
:1008200080B483B000AF03460A46FB711346BB7128
:10083000FB79022B36D0022B4CDC002B02D0012B93
:1008400018D047E000BF264B1B6803F08003002B45
:10085000F9D0234ABB79536000BF214B1B6803F0DA
:100860004003002BF9D01E4B1B681D4A23F04003A8
:1008700013602FE000BF1B4B1B6803F08003002BAD
:10088000F9D0184ABB79536000BF164B1B6803F0C0
:100890004003002BF9D0134B1B68124A23F040038E
:1008A000136017E000BF104B1B6803F08003002BA0
:1008B000F9D00D4ABB79536000BF0B4B1B6803F0A6
:1008C0004003002BF9D0084B1B68074A23F0400374
:1008D000136000BF00BF0C37BD4680BC704700BF2F
:1008E00000380140004400400048004080B500AF9F
:1008F000054B1B68002B05D0034B1B689847024B28
:1009000000221A6000BF80BD6400002080B500AFE7
:10091000054B1B68002B05D0034B1B689847024B07
:1009200000221A6000BF80BD6800002080B500AFC3
:10093000054B1B68002B05D0034B1B689847024BE7
:1009400000221A6000BF80BD6C00002090B484B00B
:1009500000AF0446084611461A462346FB7103467B
:10096000BB710B467B7113463B71FB797B737B79C3
:100970003B733B79FB72BB79072B08D9BB790F2BF3
:1009800005D8BB79083BFB730123BB7303E0BB793C
:10099000FB730023BB73FB7B9B00BB72BB7B002BF9
:1009A0006ED07B7B032B00F2D8807B7B022B47D061
:1009B000022B00F3D280002B02D0012B20D0CCE000
:1009C000684B5A68BB7A0F2101FA03F3DB43654990
:1009D00013404B60634B5B68397BBA7A01FA02F2D1
:1009E0001146604A0B4353605E4B5B68F97ABA7AF2
:1009F000023201FA02F211465A4A0B435360ACE04C
:100A0000594B5A68BB7A0F2101FA03F3DB4356496D
:100A100013404B60544B5B68397BBA7A01FA02F29F
:100A20001146514A0B4353604F4B5B68F97ABA7ACF
:100A3000023201FA02F211464B4A0B4353608CE03A
:100A40004A4B5A68BB7A0F2101FA03F3DB4347494B
:100A500013404B60454B5B68397BBA7A01FA02F26E
:100A60001146424A0B435360404B5B68F97ABA7AAD
:100A7000023201FA02F211463C4A0B4353606CE029
:100A80007B7B032B69D87B7B022B46D0022B64DC5B
:100A9000002B02D0012B20D05FE0324B1A68BB7ACA
:100AA0000F2101FA03F3DB432E4913400B602D4B5A
:100AB0001B68397BBA7A01FA02F21146294A0B43C4
:100AC0001360284B1B68F97ABA7A023201FA02F2F3
:100AD0001146244A0B4313603FE0234B1A68BB7A4C
:100AE0000F2101FA03F3DB431F4913400B601E4B38
:100AF0001B68397BBA7A01FA02F211461A4A0B4393
:100B00001360194B1B68F97ABA7A023201FA02F2C1
:100B10001146154A0B4313601FE0144B1A68BB7A49
:100B20000F2101FA03F3DB43104913400B600F4B15
:100B30001B68397BBA7A01FA02F211460B4A0B4361
:100B400013600A4B1B68F97ABA7A023201FA02F290
:100B50001146064A0B43136000BF00BF1037BD4665
:100B600090BC704700080140000C0140001001409B
:100B700080B500AFFFF74AFD02210220FFF76EFDAE
:100B800003210220FFF76AFD04210220FFF766FD22
:100B90000E210220FFF762FD00210220FFF75EFD1B
:100BA0000A23002200210120FFF7D0FE0A230022A1
:100BB00001210120FFF7CAFE0A230122092100209A
:100BC000FFF7C4FE0A2300220A210020FFF7BEFE21
:100BD00000210020FFF72EFB01210020FFF788FBFA
:100BE0000F490020FFF7A2FC0620FFF7C1FA002002
:100BF000FFF706FB00210120FFF71CFB012101206C
:100C0000FFF776FB07490120FFF790FC0720FFF76D
:100C1000AFFA0120FFF7F4FA0020FFF759FDFEE7D5
:100C2000290C0008390C000880B500AF61210020B4
:100C3000FFF7F6FD00BF80BD80B500AF6221002048
:100C4000FFF7EEFD00BF80BD0D488546AFF3008085
:100C50000C480D490D4A002302E0D458C450043317
:100C6000C4188C42F9D30A4A0A4C002301E01360ED
:100C70000432A242FBD300F011F8FFF779FFFEE740
:100C8000005000200000002000000020040D00089B
:100C90000000002070000020FEE7000070B5002674
:100CA0000C4D0D4C641BA410A64209D100F01AF89B
:100CB00000260A4D0A4C641BA410A64205D170BD43
:100CC00055F8043B98470136EEE755F8043B984742
:100CD0000136F2E7FC0C0008FC0C0008FC0C0008D4
:100CE000000D0008F8B500BFF8BC08BC9E46704770
:0C0CF000F8B500BFF8BC08BC9E46704779
:040CFC005501000896
:040D000031010008B5
:0400000508000C499A
:00000001FF
