:020000040800F2
:10000000005000208D090008DD090008DD09000806
:10001000DD090008DD090008DD0900080000000016
:10002000000000000000000000000000DD090008E2
:10003000DD09000800000000DD09000805020008D5
:10004000DD090008DD090008DD090008DD090008F8
:10005000DD090008DD0900084D02000871020008F2
:1000600095020008B9020008DD020008DD09000859
:10007000DD090008DD090008DD090008DD090008C8
:10008000DD090008DD090008DD090008DD090008B8
:10009000DD090008DD090008DD090008DD090008A8
:1000A000DD090008DD090008DD090008DD09000898
:1000B000DD090008DD090008DD090008DD09000888
:1000C000DD090008DD090008DD090008DD09000878
:1000D000DD0900088D050008AD050008CD05000804
:1000E000DD090008DD09000800000000DD09000846
:1000F000DD090008DD090008DD090008DD09000848
:10010000DD090008DD090008DD090008DD09000837
:10011000DD090008DD090008DD090008DD09000827
:10012000DD090008DD090008DD090008DD09000817
:1001300010B5054C237833B9044B13B10448AFF321
:1001400000800123237010BD00000020000000008B
:10015000280A000808B5034B1BB103490348AFF355
:10016000008008BD0000000004000020280A0008EC
:1001700080B400AF0C4B1B680B4A23F001031360E3
:10018000094B00229A60084B1B68074A43F004039E
:100190001360054B1B68044A23F00203136000BF81
:1001A000BD4680BC704700BF10E000E080B485B061
:1001B00000AF78607B6823F07F43FB60104AFB68E8
:1001C00053600F4B1B680E4A43F00103136000BFDE
:1001D0000B4B1B6803F48033002BF9D0084B1B68D2
:1001E000074A23F001031360054B00225A60044BB9
:1001F00000229A6000BF1437BD4680BC704700BF24
:1002000010E000E080B500AF0D4B1B6898470D4B28
:100210001B68002B11D10C4B00225A600A4B0022A4
:100220009A60094B1B68084A23F001031360064BD0
:100230001B68054A23F00203136000BF80BD00BFA6
:100240001C0000202000002010E000E080B500AF7E
:10025000054B5B69044A43F001035361034B1B6880
:10026000984700BF80BD00BF00040140240000206B
:1002700080B500AF054B5B69044A43F0020353614C
:10028000034B5B68984700BF80BD00BF000401407E
:100290002400002080B500AF054B5B69044A43F0A1
:1002A00004035361034B9B68984700BF80BD00BFA8
:1002B000000401402400002080B500AF054B5B69BD
:1002C000044A43F008035361034BDB68984700BFBF
:1002D00080BD00BF000401402400002080B500AFB5
:1002E000054B5B69044A43F010035361034B1B69E0
:1002F000984700BF80BD00BF0004014024000020DB
:1003000080B400AF114B1B68104A43F48033136074
:1003100000BF0E4B1B6803F40033002BF9D00B4BCE
:100320009B680A4A23F400239360084B5B68074AE2
:1003300043F001035360054B5B68044A23F002035A
:10034000536000BFBD4680BC704700BF0010024034
:1003500080B483B000AF03460A46FB711346BB71FD
:10036000FB79022B1CD0022B25DC002B02D0012BA9
:100370000BD020E0124B5B69BA79012101FA02F23D
:1003800011460F4A0B43536115E00D4BDB69BA79F7
:10039000012101FA02F21146094A0B43D3610AE036
:1003A000074B9B69BA79012101FA02F21146044A0E
:1003B0000B43936100BF00BF0C37BD4680BC704744
:1003C0000010024080B483B000AF0346FB71FB799C
:1003D000022B65D0022B00F39280002B02D0012B60
:1003E0002FD08CE0484BDB68474A23F48053D3601E
:1003F000454BDB68444A23F48063D360424B1B695E
:10040000414A23F4805313613F4B1B693E4A23F456
:10041000005313613C4B40F249329A603A4BDB681F
:10042000394A43F40053D360374BDB68364A43F014
:100430000803D360344BDB68334A43F00403D360D2
:100440005DE0324BDB68314A23F48053D3602F4B9D
:10045000DB682E4A23F48063D3602C4B1B692B4A44
:1004600023F480531361294B1B69284A23F400535A
:100470001361264B40F249329A60244BDB68234AD1
:1004800043F40053D360214BDB68204A43F0080358
:10049000D3601E4BDB681D4A43F00403D3602EE09B
:1004A0001B4BDB681A4A23F48053D360184BDB687C
:1004B000174A23F48063D360154B1B69144A23F455
:1004C00080531361124B1B69114A23F400531361CB
:1004D0000F4B40F249329A600D4BDB680C4A43F4F3
:1004E0000053D3600A4BDB68094A43F00803D3602A
:1004F000074BDB68064A43F00403D36000BF00BF2C
:100500000C37BD4680BC70470038014000440040B5
:100510000048004080B485B000AF0346FB71FB7912
:10052000022B1CD0022B25DC002B02D0012B0BD080
:1005300020E000BF124B1B6803F02003002BF9D012
:100540000F4B5B68FB7315E000BF0E4B1B6803F09D
:100550002003002BF9D00B4B5B68FB730AE000BF54
:10056000094B1B6803F02003002BF9D0064B5B6896
:10057000FB7300BFFB7B18461437BD4680BC704739
:1005800000380140004400400048004080B500AF02
:10059000054B1B68002B05D0034B1B689847024B8B
:1005A00000221A6000BF80BD6400002080B500AF4B
:1005B000054B1B68002B05D0034B1B689847024B6B
:1005C00000221A6000BF80BD6800002080B500AF27
:1005D000054B1B68002B05D0034B1B689847024B4B
:1005E00000221A6000BF80BD6C00002090B484B06F
:1005F00000AF0446084611461A462346FB710346DF
:10060000BB710B467B7113463B71FB797B737B7926
:100610003B733B79FB72BB79072B08D9BB790F2B56
:1006200005D8BB79083BFB730123BB7303E0BB799F
:10063000FB730023BB73FB7B9B00BB72BB7B002B5C
:100640006ED07B7B032B00F2D8807B7B022B47D0C4
:10065000022B00F3D280002B02D0012B20D0CCE063
:10066000684B5A68BB7A0F2101FA03F3DB436549F3
:1006700013404B60634B5B68397BBA7A01FA02F234
:100680001146604A0B4353605E4B5B68F97ABA7A55
:10069000023201FA02F211465A4A0B435360ACE0AF
:1006A000594B5A68BB7A0F2101FA03F3DB435649D1
:1006B00013404B60544B5B68397BBA7A01FA02F203
:1006C0001146514A0B4353604F4B5B68F97ABA7A33
:1006D000023201FA02F211464B4A0B4353608CE09E
:1006E0004A4B5A68BB7A0F2101FA03F3DB434749AF
:1006F00013404B60454B5B68397BBA7A01FA02F2D2
:100700001146424A0B435360404B5B68F97ABA7A10
:10071000023201FA02F211463C4A0B4353606CE08C
:100720007B7B032B69D87B7B022B46D0022B64DCBE
:10073000002B02D0012B20D05FE0324B1A68BB7A2D
:100740000F2101FA03F3DB432E4913400B602D4BBD
:100750001B68397BBA7A01FA02F21146294A0B4327
:100760001360284B1B68F97ABA7A023201FA02F256
:100770001146244A0B4313603FE0234B1A68BB7AAF
:100780000F2101FA03F3DB431F4913400B601E4B9B
:100790001B68397BBA7A01FA02F211461A4A0B43F6
:1007A0001360194B1B68F97ABA7A023201FA02F225
:1007B0001146154A0B4313601FE0144B1A68BB7AAD
:1007C0000F2101FA03F3DB43104913400B600F4B79
:1007D0001B68397BBA7A01FA02F211460B4A0B43C5
:1007E00013600A4B1B68F97ABA7A023201FA02F2F4
:1007F0001146064A0B43136000BF00BF1037BD46C9
:1008000090BC704700080140000C014000100140FE
:1008100080B483B000AF0346FB710B46BB71134637
:100820007B71FB79032B4BD8FB79022B32D0022B47
:1008300046DC002B02D0012B16D041E0234BDB68B5
:10084000BA79012101FA02F2D24311461F4A0B4044
:10085000D3601E4BDB687979BA7901FA02F211464E
:100860001A4A0B43D3602BE0194BDB68BA7901219C
:1008700001FA02F2D2431146154A0B40D360144BE1
:10088000DB687979BA7901FA02F21146104A0B4312
:10089000D36015E00F4BDB68BA79012101FA02F24F
:1008A000D24311460B4A0B40D3600A4BDB6879797F
:1008B000BA7901FA02F21146064A0B43D36000BF2F
:1008C00000BF0C37BD4680BC704700BF0008014028
:1008D000000C01400010014080B582B000AFFFF76E
:1008E0000FFD02210220FFF733FD03210220FFF755
:1008F0002FFD04210220FFF72BFD0E210220FFF720
:1009000027FD00210220FFF723FD0A2301220921F0
:100910000020FFF76BFE0A2300220A210020FFF7C8
:1009200065FE002301220D210220FFF75FFE002358
:10093000012200210120FFF759FE0020FFF742FDB0
:10094000FFF716FC01220D210220FFF761FF0020B6
:10095000FFF7E0FD0346FB71FB79612B08D1012213
:1009600000210120FFF754FF0748FFF71FFCE9E7CC
:10097000FB79622BE6D1002200210120FFF748FF1E
:100980000148FFF713FCDDE77E3801000D4885467E
:10099000AFF300800C480D490D4A002302E0D45803
:1009A000C4500433C4188C42F9D30A4A0A4C0023B9
:1009B00001E013600432A242FBD300F011F8FFF70C
:1009C0008BFFFEE700500020000000200000002008
:1009D000480A00080000002070000020FEE7000028
:1009E00070B500260C4D0D4C641BA410A64209D115
:1009F00000F01AF800260A4D0A4C641BA410A64207
:100A000005D170BD55F8043B98470136EEE755F81F
:100A1000043B98470136F2E7400A0008400A000804
:100A2000400A0008440A0008F8B500BFF8BC08BC3A
:100A30009E467047F8B500BFF8BC08BC9E4670479C
:040A40005501000854
:040A44003101000874
:040000050800098D59
:00000001FF
